{
  "contractName": "BallotFactory",
  "abi": [
    {
      "constant": true,
      "inputs": [
        {
          "name": "",
          "type": "uint256"
        }
      ],
      "name": "ballots",
      "outputs": [
        {
          "name": "owner",
          "type": "address"
        },
        {
          "name": "description",
          "type": "string"
        },
        {
          "name": "timestamp",
          "type": "uint32"
        },
        {
          "name": "count",
          "type": "uint32"
        }
      ],
      "payable": false,
      "stateMutability": "view",
      "type": "function"
    },
    {
      "constant": true,
      "inputs": [],
      "name": "owner",
      "outputs": [
        {
          "name": "",
          "type": "address"
        }
      ],
      "payable": false,
      "stateMutability": "view",
      "type": "function"
    },
    {
      "constant": true,
      "inputs": [
        {
          "name": "",
          "type": "uint256"
        },
        {
          "name": "",
          "type": "uint256"
        }
      ],
      "name": "options",
      "outputs": [
        {
          "name": "",
          "type": "string"
        }
      ],
      "payable": false,
      "stateMutability": "view",
      "type": "function"
    },
    {
      "constant": true,
      "inputs": [
        {
          "name": "",
          "type": "uint256"
        },
        {
          "name": "",
          "type": "address"
        }
      ],
      "name": "votes",
      "outputs": [
        {
          "name": "",
          "type": "uint256"
        }
      ],
      "payable": false,
      "stateMutability": "view",
      "type": "function"
    },
    {
      "constant": false,
      "inputs": [
        {
          "name": "newOwner",
          "type": "address"
        }
      ],
      "name": "transferOwnership",
      "outputs": [],
      "payable": false,
      "stateMutability": "nonpayable",
      "type": "function"
    },
    {
      "inputs": [],
      "payable": false,
      "stateMutability": "nonpayable",
      "type": "constructor"
    },
    {
      "anonymous": false,
      "inputs": [
        {
          "indexed": false,
          "name": "ballotId",
          "type": "uint256"
        },
        {
          "indexed": false,
          "name": "_description",
          "type": "string"
        },
        {
          "indexed": false,
          "name": "_ballotOwner",
          "type": "address"
        },
        {
          "indexed": false,
          "name": "_timestamp",
          "type": "uint256"
        },
        {
          "indexed": false,
          "name": "count",
          "type": "uint256"
        }
      ],
      "name": "NewBallot",
      "type": "event"
    },
    {
      "anonymous": false,
      "inputs": [
        {
          "indexed": false,
          "name": "_ballotId",
          "type": "uint256"
        },
        {
          "indexed": false,
          "name": "_description",
          "type": "string"
        },
        {
          "indexed": false,
          "name": "_optionId",
          "type": "uint256"
        }
      ],
      "name": "NewOption",
      "type": "event"
    },
    {
      "anonymous": false,
      "inputs": [
        {
          "indexed": false,
          "name": "_ballotId",
          "type": "uint256"
        },
        {
          "indexed": false,
          "name": "count",
          "type": "uint256"
        },
        {
          "indexed": false,
          "name": "_description",
          "type": "string"
        }
      ],
      "name": "BallotOption",
      "type": "event"
    },
    {
      "anonymous": false,
      "inputs": [
        {
          "indexed": false,
          "name": "_ballotId",
          "type": "uint256"
        },
        {
          "indexed": false,
          "name": "_voteId",
          "type": "uint256"
        }
      ],
      "name": "NewVote",
      "type": "event"
    },
    {
      "anonymous": false,
      "inputs": [
        {
          "indexed": true,
          "name": "previousOwner",
          "type": "address"
        },
        {
          "indexed": true,
          "name": "newOwner",
          "type": "address"
        }
      ],
      "name": "OwnershipTransferred",
      "type": "event"
    },
    {
      "constant": false,
      "inputs": [
        {
          "name": "_description",
          "type": "string"
        }
      ],
      "name": "newBallot",
      "outputs": [],
      "payable": false,
      "stateMutability": "nonpayable",
      "type": "function"
    },
    {
      "constant": false,
      "inputs": [
        {
          "name": "_optionText",
          "type": "string"
        },
        {
          "name": "_ballotId",
          "type": "uint256"
        }
      ],
      "name": "addOption",
      "outputs": [],
      "payable": false,
      "stateMutability": "nonpayable",
      "type": "function"
    },
    {
      "constant": true,
      "inputs": [
        {
          "name": "_ballotId",
          "type": "uint256"
        },
        {
          "name": "_count",
          "type": "uint256"
        }
      ],
      "name": "getOption",
      "outputs": [
        {
          "name": "",
          "type": "string"
        }
      ],
      "payable": false,
      "stateMutability": "view",
      "type": "function"
    },
    {
      "constant": false,
      "inputs": [
        {
          "name": "_ballotId",
          "type": "uint256"
        },
        {
          "name": "_optionId",
          "type": "uint256"
        }
      ],
      "name": "castVote",
      "outputs": [],
      "payable": false,
      "stateMutability": "nonpayable",
      "type": "function"
    }
  ],
  "bytecode": "0x608060405234801561001057600080fd5b50336000806101000a81548173ffffffffffffffffffffffffffffffffffffffff021916908373ffffffffffffffffffffffffffffffffffffffff16021790555061102e806100606000396000f300608060405260043610610099576000357c0100000000000000000000000000000000000000000000000000000000900463ffffffff1680631ce309271461009e5780632c0a3f891461014e5780635c632b38146101855780637c44c75b146102845780638da5cb5b146102ed5780639c2eff1e14610344578063bd6d605c146103b7578063d23254b414610467578063f2fde38b146104c8575b600080fd5b3480156100aa57600080fd5b506100d3600480360381019080803590602001909291908035906020019092919050505061050b565b6040518080602001828103825283818151815260200191508051906020019080838360005b838110156101135780820151818401526020810190506100f8565b50505050905090810190601f1680156101405780820380516001836020036101000a031916815260200191505b509250505060405180910390f35b34801561015a57600080fd5b5061018360048036038101908080359060200190929190803590602001909291905050506106be565b005b34801561019157600080fd5b506101b0600480360381019080803590602001909291905050506107e5565b604051808573ffffffffffffffffffffffffffffffffffffffff1673ffffffffffffffffffffffffffffffffffffffff168152602001806020018463ffffffff1663ffffffff1681526020018363ffffffff1663ffffffff168152602001828103825285818151815260200191508051906020019080838360005b8381101561024657808201518184015260208101905061022b565b50505050905090810190601f1680156102735780820380516001836020036101000a031916815260200191505b509550505050505060405180910390f35b34801561029057600080fd5b506102eb600480360381019080803590602001908201803590602001908080601f01602080910402602001604051908101604052809392919081815260200183838082843782019150505050505091929192905050506108fc565b005b3480156102f957600080fd5b50610302610b15565b604051808273ffffffffffffffffffffffffffffffffffffffff1673ffffffffffffffffffffffffffffffffffffffff16815260200191505060405180910390f35b34801561035057600080fd5b506103b5600480360381019080803590602001908201803590602001908080601f016020809104026020016040519081016040528093929190818152602001838380828437820191505050505050919291929080359060200190929190505050610b3a565b005b3480156103c357600080fd5b506103ec6004803603810190808035906020019092919080359060200190929190505050610ca6565b6040518080602001828103825283818151815260200191508051906020019080838360005b8381101561042c578082015181840152602081019050610411565b50505050905090810190601f1680156104595780820380516001836020036101000a031916815260200191505b509250505060405180910390f35b34801561047357600080fd5b506104b260048036038101908080359060200190929190803573ffffffffffffffffffffffffffffffffffffffff169060200190929190505050610d63565b6040518082815260200191505060405180910390f35b3480156104d457600080fd5b50610509600480360381019080803573ffffffffffffffffffffffffffffffffffffffff169060200190929190505050610d88565b005b60607f4e2eb02f7646d316a72b61af90167a37b01dc7f0b554786de408e010422e9cb5838360036000878152602001908152602001600020600086815260200190815260200160002060405180848152602001838152602001806020018281038252838181546001816001161561010002031660029004815260200191508054600181600116156101000203166002900480156105e95780601f106105be576101008083540402835291602001916105e9565b820191906000526020600020905b8154815290600101906020018083116105cc57829003601f168201915b505094505050505060405180910390a16003600084815260200190815260200160002060008381526020019081526020016000208054600181600116156101000203166002900480601f0160208091040260200160405190810160405280929190818152602001828054600181600116156101000203166002900480156106b15780601f10610686576101008083540402835291602001916106b1565b820191906000526020600020905b81548152906001019060200180831161069457829003601f168201915b5050505050905092915050565b7f210e6029641352a94c63d645e8bfeebcda1cc84abf4e95efb3dfdc58fc891f42826002600085815260200190815260200160002060003373ffffffffffffffffffffffffffffffffffffffff1673ffffffffffffffffffffffffffffffffffffffff16815260200190815260200160002054604051808381526020018281526020019250505060405180910390a1806002600084815260200190815260200160002060003373ffffffffffffffffffffffffffffffffffffffff1673ffffffffffffffffffffffffffffffffffffffff168152602001908152602001600020819055507f210e6029641352a94c63d645e8bfeebcda1cc84abf4e95efb3dfdc58fc891f428282604051808381526020018281526020019250505060405180910390a15050565b6001818154811015156107f457fe5b90600052602060002090600302016000915090508060000160009054906101000a900473ffffffffffffffffffffffffffffffffffffffff1690806001018054600181600116156101000203166002900480601f0160208091040260200160405190810160405280929190818152602001828054600181600116156101000203166002900480156108c65780601f1061089b576101008083540402835291602001916108c6565b820191906000526020600020905b8154815290600101906020018083116108a957829003601f168201915b5050505050908060020160009054906101000a900463ffffffff16908060020160049054906101000a900463ffffffff16905084565b60006001806080604051908101604052803373ffffffffffffffffffffffffffffffffffffffff1681526020018581526020014263ffffffff168152602001600063ffffffff168152509080600181540180825580915050906001820390600052602060002090600302016000909192909190915060008201518160000160006101000a81548173ffffffffffffffffffffffffffffffffffffffff021916908373ffffffffffffffffffffffffffffffffffffffff16021790555060208201518160010190805190602001906109d4929190610edd565b5060408201518160020160006101000a81548163ffffffff021916908363ffffffff16021790555060608201518160020160046101000a81548163ffffffff021916908363ffffffff16021790555050500390507f0176850c4971d53ac6a3560da30a07bab1a583816378c3cb6bd2a8a17b6776c781833342600060405180868152602001806020018573ffffffffffffffffffffffffffffffffffffffff1673ffffffffffffffffffffffffffffffffffffffff168152602001848152602001838152602001828103825286818151815260200191508051906020019080838360005b83811015610ad3578082015181840152602081019050610ab8565b50505050905090810190601f168015610b005780820380516001836020036101000a031916815260200191505b50965050505050505060405180910390a15050565b6000809054906101000a900473ffffffffffffffffffffffffffffffffffffffff1681565b6000600182815481101515610b4b57fe5b906000526020600020906003020160020160049054906101000a900463ffffffff1663ffffffff169050826003600084815260200190815260200160002060008381526020019081526020016000209080519060200190610bad929190610f5d565b507f9a2a9f859ff0191baa410c676b5b88fc458e187940c455fa0411e5593834bd948284836040518084815260200180602001838152602001828103825284818151815260200191508051906020019080838360005b83811015610c1e578082015181840152602081019050610c03565b50505050905090810190601f168015610c4b5780820380516001836020036101000a031916815260200191505b5094505050505060405180910390a1808060010191505080600183815481101515610c7257fe5b906000526020600020906003020160020160046101000a81548163ffffffff021916908363ffffffff160217905550505050565b6003602052816000526040600020602052806000526040600020600091509150508054600181600116156101000203166002900480601f016020809104026020016040519081016040528092919081815260200182805460018160011615610100020316600290048015610d5b5780601f10610d3057610100808354040283529160200191610d5b565b820191906000526020600020905b815481529060010190602001808311610d3e57829003601f168201915b505050505081565b6002602052816000526040600020602052806000526040600020600091509150505481565b6000809054906101000a900473ffffffffffffffffffffffffffffffffffffffff1673ffffffffffffffffffffffffffffffffffffffff163373ffffffffffffffffffffffffffffffffffffffff16141515610de357600080fd5b600073ffffffffffffffffffffffffffffffffffffffff168173ffffffffffffffffffffffffffffffffffffffff1614151515610e1f57600080fd5b8073ffffffffffffffffffffffffffffffffffffffff166000809054906101000a900473ffffffffffffffffffffffffffffffffffffffff1673ffffffffffffffffffffffffffffffffffffffff167f8be0079c531659141344cd1fd0a4f28419497f9722a3daafe3b4186f6b6457e060405160405180910390a3806000806101000a81548173ffffffffffffffffffffffffffffffffffffffff021916908373ffffffffffffffffffffffffffffffffffffffff16021790555050565b828054600181600116156101000203166002900490600052602060002090601f016020900481019282601f10610f1e57805160ff1916838001178555610f4c565b82800160010185558215610f4c579182015b82811115610f4b578251825591602001919060010190610f30565b5b509050610f599190610fdd565b5090565b828054600181600116156101000203166002900490600052602060002090601f016020900481019282601f10610f9e57805160ff1916838001178555610fcc565b82800160010185558215610fcc579182015b82811115610fcb578251825591602001919060010190610fb0565b5b509050610fd99190610fdd565b5090565b610fff91905b80821115610ffb576000816000905550600101610fe3565b5090565b905600a165627a7a72305820f9aa246c84aaeeb89690bef4263d3f5356ea41c6847c0b7eb1fe5101e27fb9630029",
  "source": "pragma solidity ^0.4.23;\n\nimport \"./Ownable.sol\";\n\ncontract BallotFactory is Ownable {\n\n  event NewBallot(uint ballotId, string _description, address _ballotOwner, uint _timestamp, uint count);\n  event NewOption(uint _ballotId, string _description, uint _optionId);\n  event BallotOption(uint _ballotId, uint count, string _description);\n  event NewVote(uint _ballotId, uint _voteId);\n\n  struct Ballot {\n    address owner;\n    string description;\n    uint32 timestamp;\n    uint32 count;\n  }\n\n  Ballot[] public ballots;\n\n  // votes[uint ballotId][address voterAddress]\n  mapping(uint => mapping(address => uint)) public votes;\n\n  // options[uint ballotId][uint id]\n  mapping(uint => mapping(uint => string)) public options;\n\n//  Option[] public options;\n//  address[] public ballotOwners;\n\n  constructor() public {\n  } \n\n  function newBallot(string _description) public {\n//    uint ballotOwnerId = ballotOwners.push(msg.sender) - 1;\n    uint ballotId = ballots.push(Ballot(msg.sender, _description, uint32(block.timestamp), 0)) - 1;\n    emit NewBallot(ballotId, _description, msg.sender, block.timestamp, 0);\n  }\n\n  function addOption(string _optionText, uint _ballotId) public {\n    uint count = ballots[_ballotId].count;\n    options[_ballotId][count] = _optionText;\n    emit NewOption(_ballotId, _optionText, count);\n    count++;\n    ballots[_ballotId].count = uint32(count);\n  }\n\n  function getOption(uint _ballotId, uint _count) public view returns (string) {\n    emit BallotOption(_ballotId, _count , options[_ballotId][_count]);\n    return options[_ballotId][_count];\n  }\n  \n  function castVote(uint _ballotId, uint _optionId) public {\n    emit NewVote(_ballotId, votes[_ballotId][msg.sender]);\n    votes[_ballotId][msg.sender] = _optionId;\n    emit NewVote(_ballotId, _optionId);\n  }\n}\n",
  "sourcePath": "/home/gavin/blockchain/wallet/contracts/BallotFactory.sol",
  "compiler": {
    "name": "solc",
    "version": "0.4.23+commit.124ca40d.Emscripten.clang"
  },
  "schemaVersion": "2.0.0",
  "updatedAt": "2018-07-03T14:00:50.256Z"
}