{
  "contractName": "BallotFactory",
  "abi": [
    {
      "constant": true,
      "inputs": [
        {
          "name": "",
          "type": "uint256"
        }
      ],
      "name": "options",
      "outputs": [
        {
          "name": "optionText",
          "type": "string"
        },
        {
          "name": "ballotId",
          "type": "uint256"
        }
      ],
      "payable": false,
      "stateMutability": "view",
      "type": "function"
    },
    {
      "constant": true,
      "inputs": [
        {
          "name": "",
          "type": "uint256"
        }
      ],
      "name": "ballots",
      "outputs": [
        {
          "name": "description",
          "type": "string"
        },
        {
          "name": "timestamp",
          "type": "uint256"
        }
      ],
      "payable": false,
      "stateMutability": "view",
      "type": "function"
    },
    {
      "constant": true,
      "inputs": [],
      "name": "owner",
      "outputs": [
        {
          "name": "",
          "type": "address"
        }
      ],
      "payable": false,
      "stateMutability": "view",
      "type": "function"
    },
    {
      "constant": true,
      "inputs": [
        {
          "name": "",
          "type": "uint256"
        }
      ],
      "name": "ballotOwners",
      "outputs": [
        {
          "name": "",
          "type": "address"
        }
      ],
      "payable": false,
      "stateMutability": "view",
      "type": "function"
    },
    {
      "constant": false,
      "inputs": [
        {
          "name": "newOwner",
          "type": "address"
        }
      ],
      "name": "transferOwnership",
      "outputs": [],
      "payable": false,
      "stateMutability": "nonpayable",
      "type": "function"
    },
    {
      "inputs": [],
      "payable": false,
      "stateMutability": "nonpayable",
      "type": "constructor"
    },
    {
      "anonymous": false,
      "inputs": [
        {
          "indexed": false,
          "name": "_ballotId",
          "type": "uint256"
        },
        {
          "indexed": false,
          "name": "_ballotOwnerId",
          "type": "uint256"
        },
        {
          "indexed": false,
          "name": "_ballotDescription",
          "type": "string"
        },
        {
          "indexed": false,
          "name": "_ballotOwner",
          "type": "address"
        }
      ],
      "name": "NewBallot",
      "type": "event"
    },
    {
      "anonymous": false,
      "inputs": [
        {
          "indexed": false,
          "name": "_ballotId",
          "type": "uint256"
        },
        {
          "indexed": false,
          "name": "_description",
          "type": "string"
        },
        {
          "indexed": false,
          "name": "_optionId",
          "type": "uint256"
        }
      ],
      "name": "NewOption",
      "type": "event"
    },
    {
      "anonymous": false,
      "inputs": [
        {
          "indexed": false,
          "name": "_ballotId",
          "type": "uint256"
        },
        {
          "indexed": false,
          "name": "_voteId",
          "type": "uint256"
        }
      ],
      "name": "NewVote",
      "type": "event"
    },
    {
      "anonymous": false,
      "inputs": [
        {
          "indexed": true,
          "name": "previousOwner",
          "type": "address"
        },
        {
          "indexed": true,
          "name": "newOwner",
          "type": "address"
        }
      ],
      "name": "OwnershipTransferred",
      "type": "event"
    },
    {
      "constant": false,
      "inputs": [
        {
          "name": "_description",
          "type": "string"
        }
      ],
      "name": "newBallot",
      "outputs": [],
      "payable": false,
      "stateMutability": "nonpayable",
      "type": "function"
    },
    {
      "constant": false,
      "inputs": [
        {
          "name": "_optionText",
          "type": "string"
        },
        {
          "name": "_ballotId",
          "type": "uint256"
        }
      ],
      "name": "addOption",
      "outputs": [],
      "payable": false,
      "stateMutability": "nonpayable",
      "type": "function"
    },
    {
      "constant": false,
      "inputs": [],
      "name": "castVote",
      "outputs": [],
      "payable": false,
      "stateMutability": "nonpayable",
      "type": "function"
    }
  ],
  "bytecode": "0x608060405234801561001057600080fd5b50336000806101000a81548173ffffffffffffffffffffffffffffffffffffffff021916908373ffffffffffffffffffffffffffffffffffffffff160217905550610ae9806100606000396000f30060806040526004361061008e576000357c0100000000000000000000000000000000000000000000000000000000900463ffffffff1680630fb524ce14610093578063409e2205146100aa5780635c632b38146101575780637c44c75b146102045780638da5cb5b1461026d5780639c2eff1e146102c4578063b9c5d69f14610337578063f2fde38b146103a4575b600080fd5b34801561009f57600080fd5b506100a86103e7565b005b3480156100b657600080fd5b506100d5600480360381019080803590602001909291905050506103e9565b6040518080602001838152602001828103825284818151815260200191508051906020019080838360005b8381101561011b578082015181840152602081019050610100565b50505050905090810190601f1680156101485780820380516001836020036101000a031916815260200191505b50935050505060405180910390f35b34801561016357600080fd5b50610182600480360381019080803590602001909291905050506104b4565b6040518080602001838152602001828103825284818151815260200191508051906020019080838360005b838110156101c85780820151818401526020810190506101ad565b50505050905090810190601f1680156101f55780820380516001836020036101000a031916815260200191505b50935050505060405180910390f35b34801561021057600080fd5b5061026b600480360381019080803590602001908201803590602001908080601f016020809104026020016040519081016040528093929190818152602001838380828437820191505050505050919291929050505061057f565b005b34801561027957600080fd5b50610282610740565b604051808273ffffffffffffffffffffffffffffffffffffffff1673ffffffffffffffffffffffffffffffffffffffff16815260200191505060405180910390f35b3480156102d057600080fd5b50610335600480360381019080803590602001908201803590602001908080601f016020809104026020016040519081016040528093929190818152602001838380828437820191505050505050919291929080359060200190929190505050610765565b005b34801561034357600080fd5b5061036260048036038101908080359060200190929190505050610885565b604051808273ffffffffffffffffffffffffffffffffffffffff1673ffffffffffffffffffffffffffffffffffffffff16815260200191505060405180910390f35b3480156103b057600080fd5b506103e5600480360381019080803573ffffffffffffffffffffffffffffffffffffffff1690602001909291905050506108c3565b005b565b6002818154811015156103f857fe5b9060005260206000209060020201600091509050806000018054600181600116156101000203166002900480601f0160208091040260200160405190810160405280929190818152602001828054600181600116156101000203166002900480156104a45780601f10610479576101008083540402835291602001916104a4565b820191906000526020600020905b81548152906001019060200180831161048757829003601f168201915b5050505050908060010154905082565b6001818154811015156104c357fe5b9060005260206000209060020201600091509050806000018054600181600116156101000203166002900480601f01602080910402602001604051908101604052809291908181526020018280546001816001161561010002031660029004801561056f5780601f106105445761010080835404028352916020019161056f565b820191906000526020600020905b81548152906001019060200180831161055257829003601f168201915b5050505050908060010154905082565b600080600160033390806001815401808255809150509060018203906000526020600020016000909192909190916101000a81548173ffffffffffffffffffffffffffffffffffffffff021916908373ffffffffffffffffffffffffffffffffffffffff16021790555003915060018060408051908101604052808681526020014281525090806001815401808255809150509060018203906000526020600020906002020160009091929091909150600082015181600001908051906020019061064b929190610a18565b506020820151816001015550500390507f44263b13320731ed29e0d8b521f08a65edbc7d90ffee6df51b57140eca5802c28183853360405180858152602001848152602001806020018373ffffffffffffffffffffffffffffffffffffffff1673ffffffffffffffffffffffffffffffffffffffff168152602001828103825284818151815260200191508051906020019080838360005b838110156106fe5780820151818401526020810190506106e3565b50505050905090810190601f16801561072b5780820380516001836020036101000a031916815260200191505b509550505050505060405180910390a1505050565b6000809054906101000a900473ffffffffffffffffffffffffffffffffffffffff1681565b600060026040805190810160405280858152602001848152509080600181540180825580915050906001820390600052602060002090600202016000909192909190915060008201518160000190805190602001906107c5929190610a18565b5060208201518160010155505090507f9a2a9f859ff0191baa410c676b5b88fc458e187940c455fa0411e5593834bd948284836040518084815260200180602001838152602001828103825284818151815260200191508051906020019080838360005b83811015610844578082015181840152602081019050610829565b50505050905090810190601f1680156108715780820380516001836020036101000a031916815260200191505b5094505050505060405180910390a1505050565b60038181548110151561089457fe5b906000526020600020016000915054906101000a900473ffffffffffffffffffffffffffffffffffffffff1681565b6000809054906101000a900473ffffffffffffffffffffffffffffffffffffffff1673ffffffffffffffffffffffffffffffffffffffff163373ffffffffffffffffffffffffffffffffffffffff1614151561091e57600080fd5b600073ffffffffffffffffffffffffffffffffffffffff168173ffffffffffffffffffffffffffffffffffffffff161415151561095a57600080fd5b8073ffffffffffffffffffffffffffffffffffffffff166000809054906101000a900473ffffffffffffffffffffffffffffffffffffffff1673ffffffffffffffffffffffffffffffffffffffff167f8be0079c531659141344cd1fd0a4f28419497f9722a3daafe3b4186f6b6457e060405160405180910390a3806000806101000a81548173ffffffffffffffffffffffffffffffffffffffff021916908373ffffffffffffffffffffffffffffffffffffffff16021790555050565b828054600181600116156101000203166002900490600052602060002090601f016020900481019282601f10610a5957805160ff1916838001178555610a87565b82800160010185558215610a87579182015b82811115610a86578251825591602001919060010190610a6b565b5b509050610a949190610a98565b5090565b610aba91905b80821115610ab6576000816000905550600101610a9e565b5090565b905600a165627a7a72305820d86174deee30d098b41c480238933cf3a7f620f580fb716ad486dcc724064ca30029",
  "source": "pragma solidity ^0.4.23;\n\nimport \"./Ownable.sol\";\n\ncontract BallotFactory is Ownable {\n\n  event NewBallot(uint _ballotId, uint _ballotOwnerId, string _ballotDescription, address _ballotOwner);\n  event NewOption(uint _ballotId, string _description, uint _optionId);\n  event NewVote(uint _ballotId, uint _voteId);\n\n  struct Vote {\n    address voter;\n    uint ballotId;\n    uint optionId;\n  }\n\n  struct Option {\n    string optionText;\n    uint ballotId;\n  }\n\n  struct Ballot {\n    string description;\n    uint timestamp;\n//    Option[] options;\n//    Vote[] votes;\n  }\n\n  Ballot[] public ballots;\n  Option[] public options;\n  address[] public ballotOwners;\n\n  constructor() public {\n  } \n\n  function newBallot(string _description) public {\n    uint ballotOwnerId = ballotOwners.push(msg.sender) - 1;\n    uint ballotId      = ballots.push(Ballot(_description, block.timestamp)) - 1;\n    emit NewBallot(ballotId, ballotOwnerId, _description, msg.sender);\n  }\n\n  function addOption(string _optionText, uint _ballotId) public {\n    uint newOptionId = options.push(Option(_optionText, _ballotId)); \n    emit NewOption(_ballotId, _optionText, newOptionId);\n  }\n  \n  function castVote() public {\n  }\n}\n",
  "sourcePath": "/home/gavin/blockchain/wallet/contracts/BallotFactory.sol",
  "compiler": {
    "name": "solc",
    "version": "0.4.24+commit.e67f0147.Emscripten.clang"
  },
  "schemaVersion": "2.0.0",
  "updatedAt": "2018-06-13T22:22:53.308Z"
}