{
  "contractName": "LottoDraw",
  "abi": [
    {
      "constant": true,
      "inputs": [
        {
          "name": "",
          "type": "uint256"
        }
      ],
      "name": "lottoGames",
      "outputs": [
        {
          "name": "",
          "type": "address"
        }
      ],
      "payable": false,
      "stateMutability": "view",
      "type": "function"
    },
    {
      "constant": true,
      "inputs": [
        {
          "name": "",
          "type": "uint256"
        }
      ],
      "name": "lottoOwner",
      "outputs": [
        {
          "name": "",
          "type": "address"
        }
      ],
      "payable": false,
      "stateMutability": "view",
      "type": "function"
    },
    {
      "constant": true,
      "inputs": [
        {
          "name": "",
          "type": "address"
        }
      ],
      "name": "lottoCount",
      "outputs": [
        {
          "name": "",
          "type": "uint256"
        }
      ],
      "payable": false,
      "stateMutability": "view",
      "type": "function"
    },
    {
      "constant": true,
      "inputs": [
        {
          "name": "",
          "type": "uint256"
        }
      ],
      "name": "lottos",
      "outputs": [
        {
          "name": "name",
          "type": "string"
        },
        {
          "name": "timestamp",
          "type": "uint256"
        },
        {
          "name": "number",
          "type": "uint8"
        }
      ],
      "payable": false,
      "stateMutability": "view",
      "type": "function"
    },
    {
      "constant": false,
      "inputs": [
        {
          "name": "_lottoId",
          "type": "uint256"
        },
        {
          "name": "_duration",
          "type": "uint256"
        }
      ],
      "name": "playLottoGame",
      "outputs": [],
      "payable": false,
      "stateMutability": "nonpayable",
      "type": "function"
    },
    {
      "constant": true,
      "inputs": [],
      "name": "owner",
      "outputs": [
        {
          "name": "",
          "type": "address"
        }
      ],
      "payable": false,
      "stateMutability": "view",
      "type": "function"
    },
    {
      "constant": false,
      "inputs": [
        {
          "name": "newOwner",
          "type": "address"
        }
      ],
      "name": "transferOwnership",
      "outputs": [],
      "payable": false,
      "stateMutability": "nonpayable",
      "type": "function"
    },
    {
      "constant": false,
      "inputs": [
        {
          "name": "_name",
          "type": "string"
        }
      ],
      "name": "newLotto",
      "outputs": [],
      "payable": false,
      "stateMutability": "nonpayable",
      "type": "function"
    },
    {
      "anonymous": false,
      "inputs": [
        {
          "indexed": false,
          "name": "lottoId",
          "type": "uint256"
        },
        {
          "indexed": false,
          "name": "name",
          "type": "string"
        },
        {
          "indexed": false,
          "name": "numbers",
          "type": "uint256[]"
        }
      ],
      "name": "NewLottoDraw",
      "type": "event"
    },
    {
      "anonymous": false,
      "inputs": [
        {
          "indexed": false,
          "name": "lottoId",
          "type": "uint256"
        },
        {
          "indexed": false,
          "name": "name",
          "type": "string"
        },
        {
          "indexed": false,
          "name": "timestamp",
          "type": "uint256"
        },
        {
          "indexed": false,
          "name": "endTime",
          "type": "uint256"
        }
      ],
      "name": "NewLottoGame",
      "type": "event"
    },
    {
      "anonymous": false,
      "inputs": [
        {
          "indexed": false,
          "name": "lottoId",
          "type": "uint256"
        },
        {
          "indexed": false,
          "name": "name",
          "type": "string"
        },
        {
          "indexed": false,
          "name": "timestamp",
          "type": "uint256"
        },
        {
          "indexed": false,
          "name": "count",
          "type": "uint256"
        },
        {
          "indexed": false,
          "name": "number",
          "type": "uint8"
        }
      ],
      "name": "NewLotto",
      "type": "event"
    },
    {
      "anonymous": false,
      "inputs": [
        {
          "indexed": true,
          "name": "previousOwner",
          "type": "address"
        },
        {
          "indexed": true,
          "name": "newOwner",
          "type": "address"
        }
      ],
      "name": "OwnershipTransferred",
      "type": "event"
    },
    {
      "constant": false,
      "inputs": [
        {
          "name": "_lottoId",
          "type": "uint256"
        }
      ],
      "name": "doLottoDraw",
      "outputs": [],
      "payable": false,
      "stateMutability": "nonpayable",
      "type": "function"
    }
  ],
  "bytecode": "0x60806040526006600060146101000a81548160ff021916908360ff160217905550336000806101000a81548173ffffffffffffffffffffffffffffffffffffffff021916908373ffffffffffffffffffffffffffffffffffffffff160217905550610bee8061006f6000396000f300608060405260043610610099576000357c0100000000000000000000000000000000000000000000000000000000900463ffffffff1680630a4676d61461009e57806316ff09f61461010b57806319e212bc1461017857806334fa9b42146101cf5780634df01dbc146102895780636e256107146102c05780638da5cb5b146102ed578063f2fde38b14610344578063f4e12bd314610387575b600080fd5b3480156100aa57600080fd5b506100c9600480360381019080803590602001909291905050506103f0565b604051808273ffffffffffffffffffffffffffffffffffffffff1673ffffffffffffffffffffffffffffffffffffffff16815260200191505060405180910390f35b34801561011757600080fd5b5061013660048036038101908080359060200190929190505050610423565b604051808273ffffffffffffffffffffffffffffffffffffffff1673ffffffffffffffffffffffffffffffffffffffff16815260200191505060405180910390f35b34801561018457600080fd5b506101b9600480360381019080803573ffffffffffffffffffffffffffffffffffffffff169060200190929190505050610456565b6040518082815260200191505060405180910390f35b3480156101db57600080fd5b506101fa6004803603810190808035906020019092919050505061046e565b60405180806020018481526020018360ff1660ff168152602001828103825285818151815260200191508051906020019080838360005b8381101561024c578082015181840152602081019050610231565b50505050905090810190601f1680156102795780820380516001836020036101000a031916815260200191505b5094505050505060405180910390f35b34801561029557600080fd5b506102be600480360381019080803590602001909291908035906020019092919050505061054c565b005b3480156102cc57600080fd5b506102eb60048036038101908080359060200190929190505050610716565b005b3480156102f957600080fd5b50610302610719565b604051808273ffffffffffffffffffffffffffffffffffffffff1673ffffffffffffffffffffffffffffffffffffffff16815260200191505060405180910390f35b34801561035057600080fd5b50610385600480360381019080803573ffffffffffffffffffffffffffffffffffffffff16906020019092919050505061073e565b005b34801561039357600080fd5b506103ee600480360381019080803590602001908201803590602001908080601f0160208091040260200160405190810160405280939291908181526020018383808284378201915050505050509192919290505050610893565b005b60046020528060005260406000206000915054906101000a900473ffffffffffffffffffffffffffffffffffffffff1681565b60026020528060005260406000206000915054906101000a900473ffffffffffffffffffffffffffffffffffffffff1681565b60036020528060005260406000206000915090505481565b60018181548110151561047d57fe5b9060005260206000209060030201600091509050806000018054600181600116156101000203166002900480601f0160208091040260200160405190810160405280929190818152602001828054600181600116156101000203166002900480156105295780601f106104fe57610100808354040283529160200191610529565b820191906000526020600020905b81548152906001019060200180831161050c57829003601f168201915b5050505050908060010154908060020160009054906101000a900460ff16905083565b600080610557610af8565b429250838301915060018581548110151561056e57fe5b906000526020600020906003020160606040519081016040529081600082018054600181600116156101000203166002900480601f0160208091040260200160405190810160405280929190818152602001828054600181600116156101000203166002900480156106215780601f106105f657610100808354040283529160200191610621565b820191906000526020600020905b81548152906001019060200180831161060457829003601f168201915b50505050508152602001600182015481526020016002820160009054906101000a900460ff1660ff1660ff168152505090507f6b02313eafc7d0409fc66964034cc8b159aa84059956b3906ca36f364701301d8582600001518360200151856040518085815260200180602001848152602001838152602001828103825285818151815260200191508051906020019080838360005b838110156106d25780820151818401526020810190506106b7565b50505050905090810190601f1680156106ff5780820380516001836020036101000a031916815260200191505b509550505050505060405180910390a15050505050565b50565b6000809054906101000a900473ffffffffffffffffffffffffffffffffffffffff1681565b6000809054906101000a900473ffffffffffffffffffffffffffffffffffffffff1673ffffffffffffffffffffffffffffffffffffffff163373ffffffffffffffffffffffffffffffffffffffff1614151561079957600080fd5b600073ffffffffffffffffffffffffffffffffffffffff168173ffffffffffffffffffffffffffffffffffffffff16141515156107d557600080fd5b8073ffffffffffffffffffffffffffffffffffffffff166000809054906101000a900473ffffffffffffffffffffffffffffffffffffffff1673ffffffffffffffffffffffffffffffffffffffff167f8be0079c531659141344cd1fd0a4f28419497f9722a3daafe3b4186f6b6457e060405160405180910390a3806000806101000a81548173ffffffffffffffffffffffffffffffffffffffff021916908373ffffffffffffffffffffffffffffffffffffffff16021790555050565b600080429150600180606060405190810160405280868152602001858152602001600060149054906101000a900460ff1660ff16815250908060018154018082558091505090600182039060005260206000209060030201600090919290919091506000820151816000019080519060200190610911929190610b1d565b506020820151816001015560408201518160020160006101000a81548160ff021916908360ff1602179055505050039050600360003373ffffffffffffffffffffffffffffffffffffffff1673ffffffffffffffffffffffffffffffffffffffff16815260200190815260200160002060008154809291906001019190505550336002600083815260200190815260200160002060006101000a81548173ffffffffffffffffffffffffffffffffffffffff021916908373ffffffffffffffffffffffffffffffffffffffff1602179055507f33dcbbd008d5bef7283d01c4892cf88446f4a28331b255ee070e6f2bcc15080d818484600360003373ffffffffffffffffffffffffffffffffffffffff1673ffffffffffffffffffffffffffffffffffffffff16815260200190815260200160002054600060149054906101000a900460ff1660405180868152602001806020018581526020018481526020018360ff1660ff168152602001828103825286818151815260200191508051906020019080838360005b83811015610ab5578082015181840152602081019050610a9a565b50505050905090810190601f168015610ae25780820380516001836020036101000a031916815260200191505b50965050505050505060405180910390a1505050565b6060604051908101604052806060815260200160008152602001600060ff1681525090565b828054600181600116156101000203166002900490600052602060002090601f016020900481019282601f10610b5e57805160ff1916838001178555610b8c565b82800160010185558215610b8c579182015b82811115610b8b578251825591602001919060010190610b70565b5b509050610b999190610b9d565b5090565b610bbf91905b80821115610bbb576000816000905550600101610ba3565b5090565b905600a165627a7a72305820272511ae7d6a041e56eb2767a1afeb1a4da7679d88710bac8018f982231890df0029",
  "source": "pragma solidity ^0.4.23;\n\nimport \"./LottoGame.sol\";\n\ncontract LottoDraw is LottoGame {\n\n  event NewLottoDraw(uint lottoId, string name, uint[] numbers); \n    \n  function doLottoDraw(uint _lottoId) public {\n/*\n    uint timestamp = now;\n    uint endTimestamp = timestamp + _duration;\n    Lotto memory lotto = lottos[_lottoId];\n    emit NewLottoGame(_lottoId, lotto.name, lotto.timestamp, endTimestamp); \n*/\n  }\n\n}\n\n",
  "sourcePath": "/home/gavin/blockchain/wallet/contracts/LottoDraw.sol",
  "compiler": {
    "name": "solc",
    "version": "0.4.23+commit.124ca40d.Emscripten.clang"
  },
  "schemaVersion": "2.0.0",
  "updatedAt": "2018-07-04T11:50:46.905Z"
}