{
  "contractName": "LottoFactory",
  "abi": [
    {
      "constant": true,
      "inputs": [
        {
          "name": "",
          "type": "uint256"
        }
      ],
      "name": "lottoOwner",
      "outputs": [
        {
          "name": "",
          "type": "address"
        }
      ],
      "payable": false,
      "stateMutability": "view",
      "type": "function"
    },
    {
      "constant": true,
      "inputs": [
        {
          "name": "",
          "type": "address"
        }
      ],
      "name": "lottoCount",
      "outputs": [
        {
          "name": "",
          "type": "uint256"
        }
      ],
      "payable": false,
      "stateMutability": "view",
      "type": "function"
    },
    {
      "constant": true,
      "inputs": [
        {
          "name": "",
          "type": "uint256"
        }
      ],
      "name": "lottos",
      "outputs": [
        {
          "name": "name",
          "type": "string"
        },
        {
          "name": "timestamp",
          "type": "uint256"
        }
      ],
      "payable": false,
      "stateMutability": "view",
      "type": "function"
    },
    {
      "constant": true,
      "inputs": [],
      "name": "owner",
      "outputs": [
        {
          "name": "",
          "type": "address"
        }
      ],
      "payable": false,
      "stateMutability": "view",
      "type": "function"
    },
    {
      "constant": false,
      "inputs": [
        {
          "name": "newOwner",
          "type": "address"
        }
      ],
      "name": "transferOwnership",
      "outputs": [],
      "payable": false,
      "stateMutability": "nonpayable",
      "type": "function"
    },
    {
      "anonymous": false,
      "inputs": [
        {
          "indexed": false,
          "name": "lottoId",
          "type": "uint256"
        },
        {
          "indexed": false,
          "name": "name",
          "type": "string"
        },
        {
          "indexed": false,
          "name": "timestamp",
          "type": "uint256"
        }
      ],
      "name": "NewLotto",
      "type": "event"
    },
    {
      "anonymous": false,
      "inputs": [
        {
          "indexed": true,
          "name": "previousOwner",
          "type": "address"
        },
        {
          "indexed": true,
          "name": "newOwner",
          "type": "address"
        }
      ],
      "name": "OwnershipTransferred",
      "type": "event"
    },
    {
      "constant": false,
      "inputs": [
        {
          "name": "_name",
          "type": "string"
        }
      ],
      "name": "createLotto",
      "outputs": [],
      "payable": false,
      "stateMutability": "nonpayable",
      "type": "function"
    }
  ],
  "bytecode": "0x6080604052336000806101000a81548173ffffffffffffffffffffffffffffffffffffffff021916908373ffffffffffffffffffffffffffffffffffffffff160217905550610832806100536000396000f300608060405260043610610078576000357c0100000000000000000000000000000000000000000000000000000000900463ffffffff16806316ff09f61461007d57806319e212bc146100ea57806334fa9b421461014157806373ba4248146101ee5780638da5cb5b14610257578063f2fde38b146102ae575b600080fd5b34801561008957600080fd5b506100a8600480360381019080803590602001909291905050506102f1565b604051808273ffffffffffffffffffffffffffffffffffffffff1673ffffffffffffffffffffffffffffffffffffffff16815260200191505060405180910390f35b3480156100f657600080fd5b5061012b600480360381019080803573ffffffffffffffffffffffffffffffffffffffff169060200190929190505050610324565b6040518082815260200191505060405180910390f35b34801561014d57600080fd5b5061016c6004803603810190808035906020019092919050505061033c565b6040518080602001838152602001828103825284818151815260200191508051906020019080838360005b838110156101b2578082015181840152602081019050610197565b50505050905090810190601f1680156101df5780820380516001836020036101000a031916815260200191505b50935050505060405180910390f35b3480156101fa57600080fd5b50610255600480360381019080803590602001908201803590602001908080601f0160208091040260200160405190810160405280939291908181526020018383808284378201915050505050509192919290505050610407565b005b34801561026357600080fd5b5061026c6105e7565b604051808273ffffffffffffffffffffffffffffffffffffffff1673ffffffffffffffffffffffffffffffffffffffff16815260200191505060405180910390f35b3480156102ba57600080fd5b506102ef600480360381019080803573ffffffffffffffffffffffffffffffffffffffff16906020019092919050505061060c565b005b60026020528060005260406000206000915054906101000a900473ffffffffffffffffffffffffffffffffffffffff1681565b60036020528060005260406000206000915090505481565b60018181548110151561034b57fe5b9060005260206000209060020201600091509050806000018054600181600116156101000203166002900480601f0160208091040260200160405190810160405280929190818152602001828054600181600116156101000203166002900480156103f75780601f106103cc576101008083540402835291602001916103f7565b820191906000526020600020905b8154815290600101906020018083116103da57829003601f168201915b5050505050908060010154905082565b60006001604080519081016040528084815260200142815250908060018154018082558091505090600182039060005260206000209060020201600090919290919091506000820151816000019080519060200190610467929190610761565b506020820151816001015550509050336002600083815260200190815260200160002060006101000a81548173ffffffffffffffffffffffffffffffffffffffff021916908373ffffffffffffffffffffffffffffffffffffffff160217905550600360003373ffffffffffffffffffffffffffffffffffffffff1673ffffffffffffffffffffffffffffffffffffffff168152602001908152602001600020600081548092919060010191905055507fcbf701242631d6f7a127916136c096fdf91f7c2f3f5e74e3e57b2c51090bacbf818360018481548110151561054957fe5b9060005260206000209060020201600101546040518084815260200180602001838152602001828103825284818151815260200191508051906020019080838360005b838110156105a757808201518184015260208101905061058c565b50505050905090810190601f1680156105d45780820380516001836020036101000a031916815260200191505b5094505050505060405180910390a15050565b6000809054906101000a900473ffffffffffffffffffffffffffffffffffffffff1681565b6000809054906101000a900473ffffffffffffffffffffffffffffffffffffffff1673ffffffffffffffffffffffffffffffffffffffff163373ffffffffffffffffffffffffffffffffffffffff1614151561066757600080fd5b600073ffffffffffffffffffffffffffffffffffffffff168173ffffffffffffffffffffffffffffffffffffffff16141515156106a357600080fd5b8073ffffffffffffffffffffffffffffffffffffffff166000809054906101000a900473ffffffffffffffffffffffffffffffffffffffff1673ffffffffffffffffffffffffffffffffffffffff167f8be0079c531659141344cd1fd0a4f28419497f9722a3daafe3b4186f6b6457e060405160405180910390a3806000806101000a81548173ffffffffffffffffffffffffffffffffffffffff021916908373ffffffffffffffffffffffffffffffffffffffff16021790555050565b828054600181600116156101000203166002900490600052602060002090601f016020900481019282601f106107a257805160ff19168380011785556107d0565b828001600101855582156107d0579182015b828111156107cf5782518255916020019190600101906107b4565b5b5090506107dd91906107e1565b5090565b61080391905b808211156107ff5760008160009055506001016107e7565b5090565b905600a165627a7a7230582019df420c1705c70e97591e29354e77b3d42eb3e0f2f529b131ac8c84eeb0dcfa0029",
  "source": "pragma solidity ^0.4.23;\n\nimport \"./Ownable.sol\";\n\ncontract LottoFactory is Ownable {\n\n  event NewLotto(uint lottoId, string name, uint timestamp); \n    \n  struct Lotto {\n    string name;\n    uint timestamp;\n  }\n\n  Lotto[] public lottos;\n\n  mapping (uint => address) public lottoOwner;\n  mapping (address => uint) public lottoCount; \n\n  function createLotto(string _name) public {\n    uint id = lottos.push(Lotto(_name, now));\n    lottoOwner[id] = msg.sender;\n    lottoCount[msg.sender]++;\n    emit NewLotto(id, _name, lottos[id].timestamp); \n  }\n\n}\n\n",
  "sourcePath": "/home/gavin/blockchain/wallet/contracts/LottoFactory.sol",
  "compiler": {
    "name": "solc",
    "version": "0.4.23+commit.124ca40d.Emscripten.clang"
  },
  "schemaVersion": "2.0.0",
  "updatedAt": "2018-07-03T14:19:08.388Z"
}